{
  "_format": "hh-sol-artifact-1",
  "contractName": "RealEstateRental",
  "sourceName": "contracts/RealEstateRental.sol",
  "abi": [
    {
      "inputs": [],
      "stateMutability": "nonpayable",
      "type": "constructor"
    },
    {
      "anonymous": false,
      "inputs": [
        {
          "indexed": true,
          "internalType": "uint256",
          "name": "agreementId",
          "type": "uint256"
        }
      ],
      "name": "AgreementActivated",
      "type": "event"
    },
    {
      "anonymous": false,
      "inputs": [
        {
          "indexed": true,
          "internalType": "uint256",
          "name": "agreementId",
          "type": "uint256"
        }
      ],
      "name": "AgreementCompleted",
      "type": "event"
    },
    {
      "anonymous": false,
      "inputs": [
        {
          "indexed": true,
          "internalType": "uint256",
          "name": "agreementId",
          "type": "uint256"
        },
        {
          "indexed": true,
          "internalType": "uint256",
          "name": "propertyId",
          "type": "uint256"
        },
        {
          "indexed": false,
          "internalType": "address",
          "name": "tenant",
          "type": "address"
        },
        {
          "indexed": false,
          "internalType": "address",
          "name": "landlord",
          "type": "address"
        }
      ],
      "name": "AgreementCreated",
      "type": "event"
    },
    {
      "anonymous": false,
      "inputs": [
        {
          "indexed": true,
          "internalType": "uint256",
          "name": "agreementId",
          "type": "uint256"
        },
        {
          "indexed": false,
          "internalType": "address",
          "name": "terminatedBy",
          "type": "address"
        }
      ],
      "name": "AgreementTerminated",
      "type": "event"
    },
    {
      "anonymous": false,
      "inputs": [
        {
          "indexed": true,
          "internalType": "uint256",
          "name": "disputeId",
          "type": "uint256"
        },
        {
          "indexed": true,
          "internalType": "uint256",
          "name": "agreementId",
          "type": "uint256"
        },
        {
          "indexed": false,
          "internalType": "address",
          "name": "initiator",
          "type": "address"
        }
      ],
      "name": "DisputeCreated",
      "type": "event"
    },
    {
      "anonymous": false,
      "inputs": [
        {
          "indexed": true,
          "internalType": "uint256",
          "name": "disputeId",
          "type": "uint256"
        },
        {
          "indexed": false,
          "internalType": "bool",
          "name": "favorLandlord",
          "type": "bool"
        }
      ],
      "name": "DisputeResolved",
      "type": "event"
    },
    {
      "anonymous": false,
      "inputs": [
        {
          "indexed": true,
          "internalType": "address",
          "name": "previousOwner",
          "type": "address"
        },
        {
          "indexed": true,
          "internalType": "address",
          "name": "newOwner",
          "type": "address"
        }
      ],
      "name": "OwnershipTransferred",
      "type": "event"
    },
    {
      "anonymous": false,
      "inputs": [
        {
          "indexed": true,
          "internalType": "uint256",
          "name": "propertyId",
          "type": "uint256"
        }
      ],
      "name": "PropertyDelisted",
      "type": "event"
    },
    {
      "anonymous": false,
      "inputs": [
        {
          "indexed": true,
          "internalType": "uint256",
          "name": "propertyId",
          "type": "uint256"
        },
        {
          "indexed": true,
          "internalType": "address",
          "name": "owner",
          "type": "address"
        },
        {
          "indexed": false,
          "internalType": "uint256",
          "name": "rentBaseAmount",
          "type": "uint256"
        },
        {
          "indexed": false,
          "internalType": "enum RealEstateRental.RentUnit",
          "name": "unit",
          "type": "uint8"
        }
      ],
      "name": "PropertyListed",
      "type": "event"
    },
    {
      "anonymous": false,
      "inputs": [
        {
          "indexed": true,
          "internalType": "uint256",
          "name": "agreementId",
          "type": "uint256"
        },
        {
          "indexed": false,
          "internalType": "uint256",
          "name": "amount",
          "type": "uint256"
        },
        {
          "indexed": false,
          "internalType": "uint256",
          "name": "timestamp",
          "type": "uint256"
        }
      ],
      "name": "RentPaid",
      "type": "event"
    },
    {
      "anonymous": false,
      "inputs": [
        {
          "indexed": true,
          "internalType": "uint256",
          "name": "agreementId",
          "type": "uint256"
        },
        {
          "indexed": false,
          "internalType": "address",
          "name": "tenant",
          "type": "address"
        },
        {
          "indexed": false,
          "internalType": "uint256",
          "name": "amount",
          "type": "uint256"
        }
      ],
      "name": "SecurityDepositReturned",
      "type": "event"
    },
    {
      "inputs": [],
      "name": "accumulatedPlatformFees",
      "outputs": [
        {
          "internalType": "uint256",
          "name": "",
          "type": "uint256"
        }
      ],
      "stateMutability": "view",
      "type": "function"
    },
    {
      "inputs": [
        {
          "internalType": "uint256",
          "name": "_agreementId",
          "type": "uint256"
        }
      ],
      "name": "activateAgreement",
      "outputs": [],
      "stateMutability": "nonpayable",
      "type": "function"
    },
    {
      "inputs": [],
      "name": "agreementCounter",
      "outputs": [
        {
          "internalType": "uint256",
          "name": "",
          "type": "uint256"
        }
      ],
      "stateMutability": "view",
      "type": "function"
    },
    {
      "inputs": [
        {
          "internalType": "uint256",
          "name": "_agreementId",
          "type": "uint256"
        }
      ],
      "name": "completeAgreement",
      "outputs": [],
      "stateMutability": "nonpayable",
      "type": "function"
    },
    {
      "inputs": [
        {
          "internalType": "uint256",
          "name": "_agreementId",
          "type": "uint256"
        },
        {
          "internalType": "string",
          "name": "_reason",
          "type": "string"
        }
      ],
      "name": "createDispute",
      "outputs": [],
      "stateMutability": "nonpayable",
      "type": "function"
    },
    {
      "inputs": [
        {
          "internalType": "uint256",
          "name": "_propertyId",
          "type": "uint256"
        }
      ],
      "name": "delistProperty",
      "outputs": [],
      "stateMutability": "nonpayable",
      "type": "function"
    },
    {
      "inputs": [],
      "name": "disputeCounter",
      "outputs": [
        {
          "internalType": "uint256",
          "name": "",
          "type": "uint256"
        }
      ],
      "stateMutability": "view",
      "type": "function"
    },
    {
      "inputs": [
        {
          "internalType": "uint256",
          "name": "",
          "type": "uint256"
        }
      ],
      "name": "disputes",
      "outputs": [
        {
          "internalType": "uint256",
          "name": "disputeId",
          "type": "uint256"
        },
        {
          "internalType": "uint256",
          "name": "agreementId",
          "type": "uint256"
        },
        {
          "internalType": "address",
          "name": "initiator",
          "type": "address"
        },
        {
          "internalType": "string",
          "name": "reason",
          "type": "string"
        },
        {
          "internalType": "enum RealEstateRental.DisputeStatus",
          "name": "status",
          "type": "uint8"
        },
        {
          "internalType": "uint256",
          "name": "createdAt",
          "type": "uint256"
        }
      ],
      "stateMutability": "view",
      "type": "function"
    },
    {
      "inputs": [],
      "name": "getAvailableProperties",
      "outputs": [
        {
          "internalType": "uint256[]",
          "name": "",
          "type": "uint256[]"
        }
      ],
      "stateMutability": "view",
      "type": "function"
    },
    {
      "inputs": [
        {
          "internalType": "uint256",
          "name": "_disputeId",
          "type": "uint256"
        }
      ],
      "name": "getDispute",
      "outputs": [
        {
          "components": [
            {
              "internalType": "uint256",
              "name": "disputeId",
              "type": "uint256"
            },
            {
              "internalType": "uint256",
              "name": "agreementId",
              "type": "uint256"
            },
            {
              "internalType": "address",
              "name": "initiator",
              "type": "address"
            },
            {
              "internalType": "string",
              "name": "reason",
              "type": "string"
            },
            {
              "internalType": "enum RealEstateRental.DisputeStatus",
              "name": "status",
              "type": "uint8"
            },
            {
              "internalType": "uint256",
              "name": "createdAt",
              "type": "uint256"
            }
          ],
          "internalType": "struct RealEstateRental.Dispute",
          "name": "",
          "type": "tuple"
        }
      ],
      "stateMutability": "view",
      "type": "function"
    },
    {
      "inputs": [
        {
          "internalType": "address",
          "name": "_landlord",
          "type": "address"
        }
      ],
      "name": "getLandlordProperties",
      "outputs": [
        {
          "internalType": "uint256[]",
          "name": "",
          "type": "uint256[]"
        }
      ],
      "stateMutability": "view",
      "type": "function"
    },
    {
      "inputs": [
        {
          "internalType": "uint256",
          "name": "_propertyId",
          "type": "uint256"
        }
      ],
      "name": "getProperty",
      "outputs": [
        {
          "components": [
            {
              "internalType": "uint256",
              "name": "id",
              "type": "uint256"
            },
            {
              "internalType": "address payable",
              "name": "owner",
              "type": "address"
            },
            {
              "internalType": "string",
              "name": "propertyAddress",
              "type": "string"
            },
            {
              "internalType": "string",
              "name": "description",
              "type": "string"
            },
            {
              "internalType": "uint256",
              "name": "rentBaseAmount",
              "type": "uint256"
            },
            {
              "internalType": "enum RealEstateRental.RentUnit",
              "name": "unit",
              "type": "uint8"
            },
            {
              "internalType": "uint256",
              "name": "securityDeposit",
              "type": "uint256"
            },
            {
              "internalType": "bool",
              "name": "isAvailable",
              "type": "bool"
            },
            {
              "internalType": "bool",
              "name": "isActive",
              "type": "bool"
            }
          ],
          "internalType": "struct RealEstateRental.Property",
          "name": "",
          "type": "tuple"
        }
      ],
      "stateMutability": "view",
      "type": "function"
    },
    {
      "inputs": [
        {
          "internalType": "uint256",
          "name": "_agreementId",
          "type": "uint256"
        }
      ],
      "name": "getRentalAgreement",
      "outputs": [
        {
          "components": [
            {
              "internalType": "uint256",
              "name": "agreementId",
              "type": "uint256"
            },
            {
              "internalType": "uint256",
              "name": "propertyId",
              "type": "uint256"
            },
            {
              "internalType": "address payable",
              "name": "tenant",
              "type": "address"
            },
            {
              "internalType": "address payable",
              "name": "landlord",
              "type": "address"
            },
            {
              "internalType": "uint256",
              "name": "rentAmount",
              "type": "uint256"
            },
            {
              "internalType": "enum RealEstateRental.RentUnit",
              "name": "unit",
              "type": "uint8"
            },
            {
              "internalType": "uint256",
              "name": "securityDeposit",
              "type": "uint256"
            },
            {
              "internalType": "uint256",
              "name": "startDate",
              "type": "uint256"
            },
            {
              "internalType": "uint256",
              "name": "endDate",
              "type": "uint256"
            },
            {
              "internalType": "uint256",
              "name": "lastPaymentDate",
              "type": "uint256"
            },
            {
              "internalType": "enum RealEstateRental.AgreementStatus",
              "name": "status",
              "type": "uint8"
            },
            {
              "internalType": "uint256",
              "name": "totalPaid",
              "type": "uint256"
            }
          ],
          "internalType": "struct RealEstateRental.RentalAgreement",
          "name": "",
          "type": "tuple"
        }
      ],
      "stateMutability": "view",
      "type": "function"
    },
    {
      "inputs": [
        {
          "internalType": "address",
          "name": "_tenant",
          "type": "address"
        }
      ],
      "name": "getTenantAgreements",
      "outputs": [
        {
          "internalType": "uint256[]",
          "name": "",
          "type": "uint256[]"
        }
      ],
      "stateMutability": "view",
      "type": "function"
    },
    {
      "inputs": [
        {
          "internalType": "address",
          "name": "",
          "type": "address"
        },
        {
          "internalType": "uint256",
          "name": "",
          "type": "uint256"
        }
      ],
      "name": "landlordProperties",
      "outputs": [
        {
          "internalType": "uint256",
          "name": "",
          "type": "uint256"
        }
      ],
      "stateMutability": "view",
      "type": "function"
    },
    {
      "inputs": [
        {
          "internalType": "string",
          "name": "_propertyAddress",
          "type": "string"
        },
        {
          "internalType": "string",
          "name": "_description",
          "type": "string"
        },
        {
          "internalType": "uint256",
          "name": "_rentBaseAmount",
          "type": "uint256"
        },
        {
          "internalType": "uint256",
          "name": "_securityDeposit",
          "type": "uint256"
        },
        {
          "internalType": "enum RealEstateRental.RentUnit",
          "name": "_unit",
          "type": "uint8"
        }
      ],
      "name": "listProperty",
      "outputs": [
        {
          "internalType": "uint256",
          "name": "",
          "type": "uint256"
        }
      ],
      "stateMutability": "nonpayable",
      "type": "function"
    },
    {
      "inputs": [],
      "name": "owner",
      "outputs": [
        {
          "internalType": "address",
          "name": "",
          "type": "address"
        }
      ],
      "stateMutability": "view",
      "type": "function"
    },
    {
      "inputs": [
        {
          "internalType": "uint256",
          "name": "_agreementId",
          "type": "uint256"
        },
        {
          "internalType": "uint256",
          "name": "_amountInUnits",
          "type": "uint256"
        }
      ],
      "name": "payRent",
      "outputs": [],
      "stateMutability": "payable",
      "type": "function"
    },
    {
      "inputs": [],
      "name": "platformFeePercentage",
      "outputs": [
        {
          "internalType": "uint256",
          "name": "",
          "type": "uint256"
        }
      ],
      "stateMutability": "view",
      "type": "function"
    },
    {
      "inputs": [
        {
          "internalType": "uint256",
          "name": "",
          "type": "uint256"
        }
      ],
      "name": "properties",
      "outputs": [
        {
          "internalType": "uint256",
          "name": "id",
          "type": "uint256"
        },
        {
          "internalType": "address payable",
          "name": "owner",
          "type": "address"
        },
        {
          "internalType": "string",
          "name": "propertyAddress",
          "type": "string"
        },
        {
          "internalType": "string",
          "name": "description",
          "type": "string"
        },
        {
          "internalType": "uint256",
          "name": "rentBaseAmount",
          "type": "uint256"
        },
        {
          "internalType": "enum RealEstateRental.RentUnit",
          "name": "unit",
          "type": "uint8"
        },
        {
          "internalType": "uint256",
          "name": "securityDeposit",
          "type": "uint256"
        },
        {
          "internalType": "bool",
          "name": "isAvailable",
          "type": "bool"
        },
        {
          "internalType": "bool",
          "name": "isActive",
          "type": "bool"
        }
      ],
      "stateMutability": "view",
      "type": "function"
    },
    {
      "inputs": [],
      "name": "propertyCounter",
      "outputs": [
        {
          "internalType": "uint256",
          "name": "",
          "type": "uint256"
        }
      ],
      "stateMutability": "view",
      "type": "function"
    },
    {
      "inputs": [],
      "name": "renounceOwnership",
      "outputs": [],
      "stateMutability": "nonpayable",
      "type": "function"
    },
    {
      "inputs": [
        {
          "internalType": "uint256",
          "name": "",
          "type": "uint256"
        }
      ],
      "name": "rentalAgreements",
      "outputs": [
        {
          "internalType": "uint256",
          "name": "agreementId",
          "type": "uint256"
        },
        {
          "internalType": "uint256",
          "name": "propertyId",
          "type": "uint256"
        },
        {
          "internalType": "address payable",
          "name": "tenant",
          "type": "address"
        },
        {
          "internalType": "address payable",
          "name": "landlord",
          "type": "address"
        },
        {
          "internalType": "uint256",
          "name": "rentAmount",
          "type": "uint256"
        },
        {
          "internalType": "enum RealEstateRental.RentUnit",
          "name": "unit",
          "type": "uint8"
        },
        {
          "internalType": "uint256",
          "name": "securityDeposit",
          "type": "uint256"
        },
        {
          "internalType": "uint256",
          "name": "startDate",
          "type": "uint256"
        },
        {
          "internalType": "uint256",
          "name": "endDate",
          "type": "uint256"
        },
        {
          "internalType": "uint256",
          "name": "lastPaymentDate",
          "type": "uint256"
        },
        {
          "internalType": "enum RealEstateRental.AgreementStatus",
          "name": "status",
          "type": "uint8"
        },
        {
          "internalType": "uint256",
          "name": "totalPaid",
          "type": "uint256"
        }
      ],
      "stateMutability": "view",
      "type": "function"
    },
    {
      "inputs": [
        {
          "internalType": "uint256",
          "name": "_propertyId",
          "type": "uint256"
        },
        {
          "internalType": "uint256",
          "name": "_durationInMonths",
          "type": "uint256"
        },
        {
          "internalType": "uint256",
          "name": "_optionalAdditionalDays",
          "type": "uint256"
        }
      ],
      "name": "reserveProperty",
      "outputs": [
        {
          "internalType": "uint256",
          "name": "",
          "type": "uint256"
        }
      ],
      "stateMutability": "payable",
      "type": "function"
    },
    {
      "inputs": [
        {
          "internalType": "uint256",
          "name": "_disputeId",
          "type": "uint256"
        },
        {
          "internalType": "bool",
          "name": "_favorLandlord",
          "type": "bool"
        }
      ],
      "name": "resolveDispute",
      "outputs": [],
      "stateMutability": "nonpayable",
      "type": "function"
    },
    {
      "inputs": [
        {
          "internalType": "uint256",
          "name": "_newFeePercentage",
          "type": "uint256"
        }
      ],
      "name": "setPlatformFee",
      "outputs": [],
      "stateMutability": "nonpayable",
      "type": "function"
    },
    {
      "inputs": [
        {
          "internalType": "address",
          "name": "",
          "type": "address"
        },
        {
          "internalType": "uint256",
          "name": "",
          "type": "uint256"
        }
      ],
      "name": "tenantAgreements",
      "outputs": [
        {
          "internalType": "uint256",
          "name": "",
          "type": "uint256"
        }
      ],
      "stateMutability": "view",
      "type": "function"
    },
    {
      "inputs": [
        {
          "internalType": "uint256",
          "name": "_agreementId",
          "type": "uint256"
        }
      ],
      "name": "terminateAgreement",
      "outputs": [],
      "stateMutability": "nonpayable",
      "type": "function"
    },
    {
      "inputs": [
        {
          "internalType": "address",
          "name": "newOwner",
          "type": "address"
        }
      ],
      "name": "transferOwnership",
      "outputs": [],
      "stateMutability": "nonpayable",
      "type": "function"
    },
    {
      "inputs": [
        {
          "internalType": "uint256",
          "name": "_propertyId",
          "type": "uint256"
        },
        {
          "internalType": "string",
          "name": "_propertyAddress",
          "type": "string"
        },
        {
          "internalType": "string",
          "name": "_description",
          "type": "string"
        },
        {
          "internalType": "uint256",
          "name": "_rentBaseAmount",
          "type": "uint256"
        },
        {
          "internalType": "uint256",
          "name": "_securityDeposit",
          "type": "uint256"
        },
        {
          "internalType": "bool",
          "name": "_isAvailable",
          "type": "bool"
        },
        {
          "internalType": "enum RealEstateRental.RentUnit",
          "name": "_unit",
          "type": "uint8"
        }
      ],
      "name": "updateProperty",
      "outputs": [],
      "stateMutability": "nonpayable",
      "type": "function"
    },
    {
      "inputs": [],
      "name": "withdrawPlatformFees",
      "outputs": [],
      "stateMutability": "nonpayable",
      "type": "function"
    },
    {
      "stateMutability": "payable",
      "type": "receive"
    }
  ],
  "bytecode": "0x608060405260026005553480156200001657600080fd5b50600160005562000027336200002d565b6200007f565b600180546001600160a01b038381166001600160a01b0319831681179093556040519116919082907f8be0079c531659141344cd1fd0a4f28419497f9722a3daafe3b4186f6b6457e090600090a35050565b6137cd806200008f6000396000f3fe6080604052600436106101dc5760003560e01c80638aed078d11610102578063cdd78cfc11610095578063e3a96cbd11610064578063e3a96cbd146105c8578063f2fde38b146105f5578063f7b1080814610615578063fc2bf8f01461064a57600080fd5b8063cdd78cfc14610567578063d090e47e1461057d578063d0b7830b14610593578063de640390146105a857600080fd5b80639e6fffec116100d15780639e6fffec14610461578063aabe1cdb14610481578063ac06b0d8146104a1578063b574a0681461054757600080fd5b80638aed078d146103d95780638da5cb5b146103f95780639a026924146104215780639c32c4471461044157600080fd5b806334b25ee21161017a578063606b681d11610149578063606b681d1461037b578063715018a61461038e5780637d36f4d3146103a35780638458cf8e146103b957600080fd5b806334b25ee2146102e95780635479684214610309578063564a565d146103295780636007bd6e1461035b57600080fd5b806318a8a6cf116101b657806318a8a6cf146102595780631cc2ea7a1461028657806332665ffb146102a6578063342f2df3146102d357600080fd5b806306d88bbf146101e857806312e8e2c31461021357806314f79af71461023557600080fd5b366101e357005b600080fd5b3480156101f457600080fd5b506101fd61065d565b60405161020a9190612dbb565b60405180910390f35b34801561021f57600080fd5b5061023361022e366004612dff565b6107a6565b005b34801561024157600080fd5b5061024b60035481565b60405190815260200161020a565b34801561026557600080fd5b50610279610274366004612dff565b6107f8565b60405161020a9190612e52565b34801561029257600080fd5b506102336102a1366004612dff565b610935565b3480156102b257600080fd5b506102c66102c1366004612dff565b610a17565b60405161020a9190612f52565b3480156102df57600080fd5b5061024b60065481565b3480156102f557600080fd5b50610233610304366004613019565b610c25565b34801561031557600080fd5b506102336103243660046130f7565b610e27565b34801561033557600080fd5b50610349610344366004612dff565b610f8f565b60405161020a969594939291906131a9565b34801561036757600080fd5b5061024b61037636600461320d565b61105c565b61024b610389366004613237565b61108d565b34801561039a57600080fd5b5061023361159b565b3480156103af57600080fd5b5061024b60045481565b3480156103c557600080fd5b506102336103d4366004612dff565b6115af565b3480156103e557600080fd5b506101fd6103f4366004613263565b6117dc565b34801561040557600080fd5b506001546040516001600160a01b03909116815260200161020a565b34801561042d57600080fd5b5061023361043c366004612dff565b611848565b34801561044d57600080fd5b5061023361045c366004613285565b611a6d565b34801561046d57600080fd5b5061024b61047c36600461320d565b611cbe565b34801561048d57600080fd5b5061024b61049c3660046132cc565b611cda565b3480156104ad57600080fd5b5061052f6104bc366004612dff565b600860208190526000918252604090912080546001820154600283015460038401546004850154600586015460068701546007880154988801546009890154600a8a0154600b909a0154989a97996001600160a01b03978816999690971697949660ff948516969395949293919216908c565b60405161020a9c9b9a99989796959493929190613354565b34801561055357600080fd5b506101fd610562366004613263565b611ee1565b34801561057357600080fd5b5061024b60055481565b34801561058957600080fd5b5061024b60025481565b34801561059f57600080fd5b50610233611f4b565b3480156105b457600080fd5b506102336105c3366004612dff565b611ff6565b3480156105d457600080fd5b506105e86105e3366004612dff565b612291565b60405161020a91906133ce565b34801561060157600080fd5b50610233610610366004613263565b61240d565b34801561062157600080fd5b50610635610630366004612dff565b612486565b60405161020a99989796959493929190613439565b6102336106583660046134b1565b6125f1565b6060600060015b60025481116106cb576000818152600760208190526040909120015460ff1680156106a6575060008181526007602081905260409091200154610100900460ff165b156106b957816106b5816134e9565b9250505b806106c3816134e9565b915050610664565b5060008167ffffffffffffffff8111156106e7576106e7613045565b604051908082528060200260200182016040528015610710578160200160208202803683370190505b509050600060015b600254811161079d576000818152600760208190526040909120015460ff16801561075a575060008181526007602081905260409091200154610100900460ff165b1561078b578083838151811061077257610772613502565b602090810291909101015281610787816134e9565b9250505b80610795816134e9565b915050610718565b50909392505050565b6107ae612bb1565b600a8111156107f35760405162461bcd60e51b815260206004820152600c60248201526b08ccaca40e8dede40d0d2ced60a31b60448201526064015b60405180910390fd5b600555565b610800612cb6565b8160008111801561081e575060008181526008602052604090205481145b61083a5760405162461bcd60e51b81526004016107ea90613518565b600083815260086020908152604091829020825161018081018452815481526001808301549382019390935260028201546001600160a01b039081169482019490945260038201549093166060840152600481015460808401526005810154909160a084019160ff16908111156108b3576108b3612e18565b60018111156108c4576108c4612e18565b815260068201546020820152600782015460408201526008820154606082015260098201546080820152600a82015460a09091019060ff16600481111561090d5761090d612e18565b600481111561091e5761091e612e18565b8152602001600b8201548152505091505b50919050565b80600081118015610953575060008181526007602052604090205481145b61096f5760405162461bcd60e51b81526004016107ea9061354f565b60008281526007602052604090206001015482906001600160a01b031633146109cf5760405162461bcd60e51b81526020600482015260126024820152712737ba10383937b832b93a3c9037bbb732b960711b60448201526064016107ea565b6000838152600760208190526040808320909101805461ffff191690555184917f96abd22e7d47a60e2f7c6de9d91b2dacc141b1f21ce398bbd843e08c8ce6a02d91a2505050565b610a1f612d28565b81600081118015610a3d575060008181526007602052604090205481145b610a595760405162461bcd60e51b81526004016107ea9061354f565b6000838152600760209081526040918290208251610120810184528154815260018201546001600160a01b0316928101929092526002810180549293919291840191610aa490613586565b80601f0160208091040260200160405190810160405280929190818152602001828054610ad090613586565b8015610b1d5780601f10610af257610100808354040283529160200191610b1d565b820191906000526020600020905b815481529060010190602001808311610b0057829003601f168201915b50505050508152602001600382018054610b3690613586565b80601f0160208091040260200160405190810160405280929190818152602001828054610b6290613586565b8015610baf5780601f10610b8457610100808354040283529160200191610baf565b820191906000526020600020905b815481529060010190602001808311610b9257829003601f168201915b505050918352505060048201546020820152600582015460409091019060ff166001811115610be057610be0612e18565b6001811115610bf157610bf1612e18565b81526006820154602082015260079091015460ff808216151560408401526101009091041615156060909101529392505050565b610c2d612bb1565b610c35612c0b565b600082815260096020526040812090600482015460ff166002811115610c5d57610c5d612e18565b14610c9d5760405162461bcd60e51b815260206004820152601060248201526f2234b9b83aba32903737ba1037b832b760811b60448201526064016107ea565b600181810154600090815260086020908152604080832060048601805460ff199081168717909155600a82018054821660021790558186015485526007938490529190932090910180549091169092179091558215610d3c57600381015460068201546040516001600160a01b039092169181156108fc0291906000818181858888f19350505050158015610d36573d6000803e3d6000fd5b50610ddb565b600281015460068201546040516001600160a01b039092169181156108fc0291906000818181858888f19350505050158015610d7c573d6000803e3d6000fd5b50600681015415610ddb57600182015460028201546006830154604080516001600160a01b03909316835260208301919091527fbdc5db6e99672dfd55e3abd2052db33b6ce83f8891889ecde4535d4a219fce46910160405180910390a25b837f5a87909bff68caaaaf0b3fd9c74eeccc928832f879315e5c6fb7a73612f26c0c84604051610e0f911515815260200190565b60405180910390a25050610e236001600055565b5050565b86600081118015610e45575060008181526007602052604090205481145b610e615760405162461bcd60e51b81526004016107ea9061354f565b60008881526007602052604090206001015488906001600160a01b03163314610ec15760405162461bcd60e51b81526020600482015260126024820152712737ba10383937b832b93a3c9037bbb732b960711b60448201526064016107ea565b600089815260076020819052604090912090810154610100900460ff16610f235760405162461bcd60e51b815260206004820152601660248201527550726f7065727479206973206e6f742061637469766560501b60448201526064016107ea565b60028101610f318a82613608565b5060038101610f408982613608565b50600481018790556006810186905560078101805486151560ff199182161790915560058201805486921660018381811115610f7e57610f7e612e18565b021790555050505050505050505050565b6009602052600090815260409020805460018201546002830154600384018054939492936001600160a01b039092169291610fc990613586565b80601f0160208091040260200160405190810160405280929190818152602001828054610ff590613586565b80156110425780601f1061101757610100808354040283529160200191611042565b820191906000526020600020905b81548152906001019060200180831161102557829003601f168201915b505050506004830154600590930154919260ff1691905086565b600a602052816000526040600020818154811061107857600080fd5b90600052602060002001600091509150505481565b6000836000811180156110ad575060008181526007602052604090205481145b6110c95760405162461bcd60e51b81526004016107ea9061354f565b6110d1612c0b565b60008581526007602081905260409091209081015460ff1661112e5760405162461bcd60e51b815260206004820152601660248201527550726f7065727479206e6f7420617661696c61626c6560501b60448201526064016107ea565b6007810154610100900460ff1661117d5760405162461bcd60e51b815260206004820152601360248201527250726f7065727479206e6f742061637469766560681b60448201526064016107ea565b60018101546001600160a01b031633036111d95760405162461bcd60e51b815260206004820152601e60248201527f4f776e65722063616e6e6f742072656e74206f776e2070726f7065727479000060448201526064016107ea565b60008511806111e85750600084115b6112475760405162461bcd60e51b815260206004820152602a60248201527f4475726174696f6e206d757374206265206174206c65617374203120646179206044820152690dee4406240dadedce8d60b31b60648201526084016107ea565b600080600583015460ff16600181111561126357611263612e18565b036112735750600481015461129a565b6001600583015460ff16600181111561128e5761128e612e18565b0361129a575060048101545b60008260060154826112ac91906136c8565b90508034146113235760405162461bcd60e51b815260206004820152603860248201527f5061796d656e74206d69736d617463683a20696e697469616c2066756e64732060448201527f726571756972656420666f72207265736572766174696f6e000000000000000060648201526084016107ea565b60038054906000611333836134e9565b90915550429050600061134988620151806136e1565b6113568a62278d006136e1565b61136090846136c8565b61136a91906136c8565b60408051610180810182526003548152602081018d905233918101919091526001808801546001600160a01b03166060830152600488015460808301526005880154929350909160a083019160ff909116908111156113cb576113cb612e18565b815260200186600601548152602001838152602001828152602001600081526020016000600481111561140057611400612e18565b815234602091820152600380546000908152600883526040908190208451815592840151600180850191909155908401516002840180546001600160a01b039283166001600160a01b03199182161790915560608601519385018054949092169316929092179091556080830151600483015560a08301516005830180549192909160ff191690838181111561149857611498612e18565b021790555060c0820151600682015560e0820151600782015561010082015160088201556101208201516009820155610140820151600a8201805460ff191660018360048111156114eb576114eb612e18565b02179055506101609190910151600b9182015560078601805460ff191690553360008181526020928352604080822060038054825460018181018555938652948790209094019390935591549189015481519384526001600160a01b0316938301939093528c9290917fbccc93ea525c74213effe313cf29be12baa866b0a54b80532bfa465876a17745910160405180910390a3600354965050505050506115936001600055565b509392505050565b6115a3612bb1565b6115ad6000612c64565b565b806000811180156115cd575060008181526008602052604090205481145b6115e95760405162461bcd60e51b81526004016107ea90613518565b6115f1612c0b565b600082815260086020526040902060028101546001600160a01b0316331480611626575060038101546001600160a01b031633145b6116425760405162461bcd60e51b81526004016107ea906136f8565b6001600a82015460ff16600481111561165d5761165d612e18565b1461167a5760405162461bcd60e51b81526004016107ea90613720565b80600801544210156116ce5760405162461bcd60e51b815260206004820152601960248201527f41677265656d656e74206e6f742079657420657870697265640000000000000060448201526064016107ea565b600a810180546002919060ff191660018302179055506001818101546000908152600760208190526040808320909101805460ff19169093179092556002830154600684015492516001600160a01b039091169280156108fc0292909190818181858888f19350505050158015611749573d6000803e3d6000fd5b5060405183907f5a098ab2367201784eb2ad9b7e2f0d916557002385b83ddcc19293f40c4e0ed090600090a26006810154156117d15760028101546006820154604080516001600160a01b039093168352602083019190915284917fbdc5db6e99672dfd55e3abd2052db33b6ce83f8891889ecde4535d4a219fce4691015b60405180910390a25b50610e236001600055565b6001600160a01b0381166000908152600b602090815260409182902080548351818402810184019094528084526060939283018282801561183c57602002820191906000526020600020905b815481526020019060010190808311611828575b50505050509050919050565b80600081118015611866575060008181526008602052604090205481145b6118825760405162461bcd60e51b81526004016107ea90613518565b61188a612c0b565b600082815260086020526040902060028101546001600160a01b03163314806118bf575060038101546001600160a01b031633145b6118db5760405162461bcd60e51b81526004016107ea906136f8565b6001600a82015460ff1660048111156118f6576118f6612e18565b146119135760405162461bcd60e51b81526004016107ea90613720565b600a81018054600360ff19918216811790925560018084015460009081526007602081905260409091200180549092161790558101546001600160a01b031633036119f957600281015460068201546040516001600160a01b039092169181156108fc0291906000818181858888f19350505050158015611998573d6000803e3d6000fd5b506006810154156119f45760028101546006820154604080516001600160a01b039093168352602083019190915284917fbdc5db6e99672dfd55e3abd2052db33b6ce83f8891889ecde4535d4a219fce46910160405180910390a25b611a3b565b600381015460068201546040516001600160a01b039092169181156108fc0291906000818181858888f19350505050158015611a39573d6000803e3d6000fd5b505b60405133815283907f9042e126b5d7479ce8cb0f645dbd9ac62c6763a988bbd3b8417cb4646601b8d5906020016117c8565b81600081118015611a8b575060008181526008602052604090205481145b611aa75760405162461bcd60e51b81526004016107ea90613518565b600083815260086020526040902060028101546001600160a01b0316331480611adc575060038101546001600160a01b031633145b611af85760405162461bcd60e51b81526004016107ea906136f8565b6001600a82015460ff166004811115611b1357611b13612e18565b1480611b3757506002600a82015460ff166004811115611b3557611b35612e18565b145b611b835760405162461bcd60e51b815260206004820152601860248201527f496e76616c69642061677265656d656e7420737461747573000000000000000060448201526064016107ea565b60048054906000611b93836134e9565b91905055506040518060c001604052806004548152602001858152602001336001600160a01b0316815260200184815260200160006002811115611bd957611bd9612e18565b815242602091820152600454600090815260098252604090819020835181559183015160018301558201516002820180546001600160a01b0319166001600160a01b0390921691909117905560608201516003820190611c399082613608565b50608082015160048201805460ff19166001836002811115611c5d57611c5d612e18565b021790555060a09190910151600590910155600a8101805460ff19166004908117909155546040513381528591907f89b79bdd21d92f99bbf75358698d6a2b7a0a48fe9467a9ff8e5bac1ac638a3fc9060200160405180910390a350505050565b600b602052816000526040600020818154811061107857600080fd5b6000808411611d2b5760405162461bcd60e51b815260206004820152601b60248201527f52656e74206d7573742062652067726561746572207468616e2030000000000060448201526064016107ea565b60028054906000611d3b836134e9565b91905055506040518061012001604052806002548152602001336001600160a01b03168152602001878152602001868152602001858152602001836001811115611d8757611d87612e18565b8152602080820186905260016040808401829052606090930181905260028054600090815260078452849020855181559285015191830180546001600160a01b0319166001600160a01b0390931692909217909155918301519091820190611def9082613608565b5060608201516003820190611e049082613608565b506080820151600482015560a082015160058201805460ff191660018381811115611e3157611e31612e18565b021790555060c0820151600682015560e0820151600790910180546101009384015161ffff1990911692151561ff00191692909217911515909202179055336000818152600a60209081526040808320600280548254600181018455928652939094200191909155905490517f3626e43111955669b4fd38d9773ef27dd1a9f0839082e55bfd362d6696fdda7c90611ecc908890879061374e565b60405180910390a35060025495945050505050565b6001600160a01b0381166000908152600a602090815260409182902080548351818402810184019094528084526060939283018282801561183c57602002820191906000526020600020908154815260200190600101908083116118285750505050509050919050565b611f53612bb1565b611f5b612c0b565b60065480611fab5760405162461bcd60e51b815260206004820152601c60248201527f4e6f20706c6174666f726d206665657320746f2077697468647261770000000060448201526064016107ea565b600060068190556001546040516001600160a01b039091169183156108fc02918491818181858888f19350505050158015611fea573d6000803e3d6000fd5b50506115ad6001600055565b80600081118015612014575060008181526008602052604090205481145b6120305760405162461bcd60e51b81526004016107ea90613518565b612038612c0b565b600082815260086020526040902060028101546001600160a01b031633146120ad5760405162461bcd60e51b815260206004820152602260248201527f4f6e6c792074656e616e742063616e2061637469766174652061677265656d656044820152611b9d60f21b60648201526084016107ea565b6000600a82015460ff1660048111156120c8576120c8612e18565b1461212c5760405162461bcd60e51b815260206004820152602e60248201527f41677265656d656e74206973206e6f7420696e2050454e44494e475f5245534560448201526d52564154494f4e2073746174757360901b60648201526084016107ea565b600080600583015460ff16600181111561214857612148612e18565b036121585750600481015461217f565b6001600583015460ff16600181111561217357612173612e18565b0361217f575060048101545b600a8201805460ff191660011790556005546000906064906121a190846136e1565b6121ab9190613762565b905060006121b98284613784565b905081600660008282546121cd91906136c8565b909155505060038401546040516001600160a01b039091169082156108fc029083906000818181858888f1935050505015801561220e573d6000803e3d6000fd5b50426009850181905560405187917fa62c35dfc0ff11d3713608ebcdc5c5d1952c7702620f2c46c22950f7b70d57979161225091878252602082015260400190565b60405180910390a260405186907fea49e8aa1bbaa9a7b16632ed4aba908b3c702861a23436c8356e296c228cc27890600090a250505050610e236001600055565b612299612d8e565b6000821180156122ab57506004548211155b6122f05760405162461bcd60e51b8152602060048201526016602482015275111a5cdc1d5d1948191bd95cc81b9bdd08195e1a5cdd60521b60448201526064016107ea565b600082815260096020908152604091829020825160c0810184528154815260018201549281019290925260028101546001600160a01b03169282019290925260038201805491929160608401919061234790613586565b80601f016020809104026020016040519081016040528092919081815260200182805461237390613586565b80156123c05780601f10612395576101008083540402835291602001916123c0565b820191906000526020600020905b8154815290600101906020018083116123a357829003601f168201915b5050509183525050600482015460209091019060ff1660028111156123e7576123e7612e18565b60028111156123f8576123f8612e18565b81526020016005820154815250509050919050565b612415612bb1565b6001600160a01b03811661247a5760405162461bcd60e51b815260206004820152602660248201527f4f776e61626c653a206e6577206f776e657220697320746865207a65726f206160448201526564647265737360d01b60648201526084016107ea565b61248381612c64565b50565b60076020526000908152604090208054600182015460028301805492936001600160a01b03909216926124b890613586565b80601f01602080910402602001604051908101604052809291908181526020018280546124e490613586565b80156125315780601f1061250657610100808354040283529160200191612531565b820191906000526020600020905b81548152906001019060200180831161251457829003601f168201915b50505050509080600301805461254690613586565b80601f016020809104026020016040519081016040528092919081815260200182805461257290613586565b80156125bf5780601f10612594576101008083540402835291602001916125bf565b820191906000526020600020905b8154815290600101906020018083116125a257829003601f168201915b505050506004830154600584015460068501546007909501549394919360ff9182169350818116916101009091041689565b8160008111801561260f575060008181526008602052604090205481145b61262b5760405162461bcd60e51b81526004016107ea90613518565b612633612c0b565b600083815260086020526040902060028101546001600160a01b0316331461268e5760405162461bcd60e51b815260206004820152600e60248201526d139bdd081d1a19481d195b985b9d60921b60448201526064016107ea565b6001600a82015460ff1660048111156126a9576126a9612e18565b146126c65760405162461bcd60e51b81526004016107ea90613720565b806008015442111561270e5760405162461bcd60e51b81526020600482015260116024820152701059dc99595b595b9d08195e1c1a5c9959607a1b60448201526064016107ea565b6000831161275e5760405162461bcd60e51b815260206004820181905260248201527f416d6f756e74206d7573742062652067726561746572207468616e207a65726f60448201526064016107ea565b600080600583015460ff16600181111561277a5761277a612e18565b0361285657836001146127e05760405162461bcd60e51b815260206004820152602860248201527f4d6f6e74686c792072656e74207061796d656e74206d75737420626520666f726044820152670406240dadedce8d60c31b60648201526084016107ea565b50600481015460098201546127f8906220f5806136c8565b4210156128515760405162461bcd60e51b815260206004820152602160248201527f546f6f20736f6f6e20666f72206e657874206d6f6e74686c79207061796d656e6044820152601d60fa1b60648201526084016107ea565b61294c565b6001600583015460ff16600181111561287157612871612e18565b0361294c57836001146128d85760405162461bcd60e51b815260206004820152602960248201527f4461696c792072656e74207061796d656e74206d75737420626520666f72203160448201526820646179206f6e6c7960b81b60648201526084016107ea565b8382600401546128e891906136e1565b90508160090154620151806128fd91906136c8565b42101561294c5760405162461bcd60e51b815260206004820152601f60248201527f546f6f20736f6f6e20666f72206e657874206461696c79207061796d656e740060448201526064016107ea565b8034146129b25760405162461bcd60e51b815260206004820152602e60248201527f496e636f72726563742072656e7420616d6f756e7420666f722074686520737060448201526d1958da599a5959081c195c9a5bd960921b60648201526084016107ea565b6000826007015483600801546129c89190613784565b9050600080600585015460ff1660018111156129e6576129e6612e18565b03612a145760006129fa62278d0084613762565b9050846004015481612a0c91906136e1565b915050612a39565b6000612a236201518084613762565b9050846004015481612a3591906136e1565b9150505b6000846006015482612a4b91906136c8565b9050803486600b0154612a5e91906136c8565b1115612abe5760405162461bcd60e51b815260206004820152602960248201527f4f7665727061796d656e743a20436f6e7472616374206475726174696f6e20666044820152681d5b1b1e481c185a5960ba1b60648201526084016107ea565b4285600901819055503485600b016000828254612adb91906136c8565b9091555050600554600090606490612af390346136e1565b612afd9190613762565b90506000612b0b8234613784565b90508160066000828254612b1f91906136c8565b909155505060038701546040516001600160a01b039091169082156108fc029083906000818181858888f19350505050158015612b60573d6000803e3d6000fd5b50604080513481524260208201528b917fa62c35dfc0ff11d3713608ebcdc5c5d1952c7702620f2c46c22950f7b70d5797910160405180910390a250505050505050612bac6001600055565b505050565b6001546001600160a01b031633146115ad5760405162461bcd60e51b815260206004820181905260248201527f4f776e61626c653a2063616c6c6572206973206e6f7420746865206f776e657260448201526064016107ea565b600260005403612c5d5760405162461bcd60e51b815260206004820152601f60248201527f5265656e7472616e637947756172643a207265656e7472616e742063616c6c0060448201526064016107ea565b6002600055565b600180546001600160a01b038381166001600160a01b0319831681179093556040519116919082907f8be0079c531659141344cd1fd0a4f28419497f9722a3daafe3b4186f6b6457e090600090a35050565b604080516101808101825260008082526020820181905291810182905260608101829052608081018290529060a082019081526020016000815260200160008152602001600081526020016000815260200160006004811115612d1b57612d1b612e18565b8152602001600081525090565b6040518061012001604052806000815260200160006001600160a01b0316815260200160608152602001606081526020016000815260200160006001811115612d7357612d73612e18565b81526000602082018190526040820181905260609091015290565b6040805160c081018252600080825260208201819052918101829052606080820152906080820190612d1b565b6020808252825182820181905260009190848201906040850190845b81811015612df357835183529284019291840191600101612dd7565b50909695505050505050565b600060208284031215612e1157600080fd5b5035919050565b634e487b7160e01b600052602160045260246000fd5b60028110612e3e57612e3e612e18565b9052565b60058110612e3e57612e3e612e18565b60006101808201905082518252602083015160208301526040830151612e8360408401826001600160a01b03169052565b506060830151612e9e60608401826001600160a01b03169052565b506080830151608083015260a0830151612ebb60a0840182612e2e565b5060c083015160c083015260e083015160e083015261010080840151818401525061012080840151818401525061014080840151612efb82850182612e42565b505061016092830151919092015290565b6000815180845260005b81811015612f3257602081850181015186830182015201612f16565b506000602082860101526020601f19601f83011685010191505092915050565b602081528151602082015260006020830151612f7960408401826001600160a01b03169052565b506040830151610120806060850152612f96610140850183612f0c565b91506060850151601f19858403016080860152612fb38382612f0c565b925050608085015160a085015260a0850151612fd260c0860182612e2e565b5060c085015160e085015260e0850151610100612ff28187018315159052565b90950151151593019290925250919050565b8035801515811461301457600080fd5b919050565b6000806040838503121561302c57600080fd5b8235915061303c60208401613004565b90509250929050565b634e487b7160e01b600052604160045260246000fd5b600082601f83011261306c57600080fd5b813567ffffffffffffffff8082111561308757613087613045565b604051601f8301601f19908116603f011681019082821181831017156130af576130af613045565b816040528381528660208588010111156130c857600080fd5b836020870160208301376000602085830101528094505050505092915050565b80356002811061301457600080fd5b600080600080600080600060e0888a03121561311257600080fd5b87359650602088013567ffffffffffffffff8082111561313157600080fd5b61313d8b838c0161305b565b975060408a013591508082111561315357600080fd5b506131608a828b0161305b565b955050606088013593506080880135925061317d60a08901613004565b915061318b60c089016130e8565b905092959891949750929550565b60038110612e3e57612e3e612e18565b86815285602082015260018060a01b038516604082015260c0606082015260006131d660c0830186612f0c565b90506131e56080830185613199565b8260a0830152979650505050505050565b80356001600160a01b038116811461301457600080fd5b6000806040838503121561322057600080fd5b613229836131f6565b946020939093013593505050565b60008060006060848603121561324c57600080fd5b505081359360208301359350604090920135919050565b60006020828403121561327557600080fd5b61327e826131f6565b9392505050565b6000806040838503121561329857600080fd5b82359150602083013567ffffffffffffffff8111156132b657600080fd5b6132c28582860161305b565b9150509250929050565b600080600080600060a086880312156132e457600080fd5b853567ffffffffffffffff808211156132fc57600080fd5b61330889838a0161305b565b9650602088013591508082111561331e57600080fd5b5061332b8882890161305b565b9450506040860135925060608601359150613348608087016130e8565b90509295509295909350565b8c8152602081018c90526001600160a01b038b811660408301528a16606082015260808101899052610180810161338e60a083018a612e2e565b8760c08301528660e083015285610100830152846101208301526133b6610140830185612e42565b826101608301529d9c50505050505050505050505050565b60208152815160208201526020820151604082015260018060a01b0360408301511660608201526000606083015160c0608084015261341060e0840182612f0c565b9050608084015161342460a0850182613199565b5060a084015160c08401528091505092915050565b8981526001600160a01b0389166020820152610120604082018190526000906134648382018b612f0c565b90508281036060840152613478818a612f0c565b91505086608083015261348e60a0830187612e2e565b60c082019490945291151560e08301521515610100909101529695505050505050565b600080604083850312156134c457600080fd5b50508035926020909101359150565b634e487b7160e01b600052601160045260246000fd5b6000600182016134fb576134fb6134d3565b5060010190565b634e487b7160e01b600052603260045260246000fd5b60208082526018908201527f41677265656d656e7420646f6573206e6f742065786973740000000000000000604082015260600190565b60208082526017908201527f50726f706572747920646f6573206e6f74206578697374000000000000000000604082015260600190565b600181811c9082168061359a57607f821691505b60208210810361092f57634e487b7160e01b600052602260045260246000fd5b601f821115612bac57600081815260208120601f850160051c810160208610156135e15750805b601f850160051c820191505b81811015613600578281556001016135ed565b505050505050565b815167ffffffffffffffff81111561362257613622613045565b613636816136308454613586565b846135ba565b602080601f83116001811461366b57600084156136535750858301515b600019600386901b1c1916600185901b178555613600565b600085815260208120601f198616915b8281101561369a5788860151825594840194600190910190840161367b565b50858210156136b85787850151600019600388901b60f8161c191681555b5050505050600190811b01905550565b808201808211156136db576136db6134d3565b92915050565b80820281158282048414176136db576136db6134d3565b6020808252600e908201526d139bdd08185d5d1a1bdc9a5e995960921b604082015260600190565b60208082526014908201527341677265656d656e74206e6f742061637469766560601b604082015260600190565b8281526040810161327e6020830184612e2e565b60008261377f57634e487b7160e01b600052601260045260246000fd5b500490565b818103818111156136db576136db6134d356fea26469706673582212206599cfe3b53466fe6a215a671216ac0d587b5eeb99490e41264005d0a7ae3eb164736f6c63430008140033",
  "linkReferences": {},
  "deployedLinkReferences": {}
}